:100000001CC0000000000000000000000000000014
:1000100000000000000000000000000000000000E0
:1000200000000000000000000C944B000C943C0009
:10003000000000000C941C00189508E00EBF0FEFA4
:100040000DBF00E00093C1000C9426002EEF2AB9EA
:10005000289A0027009380000EE100938900002772
:100060000093880002E200936F000DE80093810086
:1000700033272EEF7894FFCF0F930FB70F93009194
:10008000810006FF02C03FEF02C03AD035D00F9189
:100090000FBF0F911895AF920F931F930FB70F9348
:1000A000A0908600A0908700132F102B81F01127BD
:1000B00010938500109384001091810016FF03C0F7
:1000C00013D01F7B02C009D01064109381000F91E0
:1000D0000FBF1F910F91AF901895772309F00895E6
:1000E0002EEF0E947C0008950F93332319F40FE044
:1000F000A01608F069C07AC0772788272BB9089521
:10010000703049F0713041F0723071F07330D1F0DD
:10011000743091F157C0089527E0803021F027E82E
:10012000883009F04FC0089529E0843051F02FEC59
:10013000803039F02BE68C3021F029E4883009F04A
:1001400041C0089521EA8830B1F023E48C3099F061
:100150002BE08A3081F021E48E3069F02DE4843088
:1001600051F023E1803039F021EC823021F025ED8F
:10017000863009F027C0089523E8883011F127E47C
:100180008A30F9F02FE08230E1F02BE88030C9F0BE
:1001900021EE8730B1F027EC843099F02DE08630E5
:1001A00081F029E18D3069F021ED813051F029E8AD
:1001B000893039F021E98B3021F025E38C3009F0CA
:1001C00001C0089521E308957395713039F07230BC
:1001D00039F0733039F0743039F01AC0886018C0C3
:1001E000846016C0826014C0816012C07395713043
:1001F00039F0723039F0733039F0743039F008C0AA
:10020000806006C0806004C0806002C0806000C062
:060210000F913327089551
:00000001FF
